:100000000C9446000C9465000C9465000C946500FB
:100010000C9465000C9465000C9465000C946500CC
:100020000C9465000C9465000C9465000C946500BC
:100030000C9465000C9465000C9465000C946500AC
:100040000C9465000C9465000C9465000C9465009C
:100050000C9465000C9465000C9465000C9465008C
:100060000C9465000C9465000C9465000C9465007C
:100070000C9465000C9465000C9465000C9465006C
:100080000C9465000C9465000C94650011241FBE4F
:10009000CFEFD0E1DEBFCDBF12E0A8E0B2E001C0FB
:1000A0001D92A433B107E1F712E0A0E0B1E0E0EC6B
:1000B000F6E100E00BBF02C007900D92A830B10737
:1000C000D9F70E9430020C945E0B0C9400000F9341
:1000D0001F93DF93CF93CDB7DEB7AA970FB6F894EF
:1000E000DEBF0FBECDBF80E090E0A0EAB1E489831F
:1000F0009A83AB83BC8369817A818B819C8120E068
:1001000030E04AE755E40E94DB05DC01CB018D833A
:100110009E83AF83B88711E06D817E818F81988542
:1001200020E030E040E85FE30E94E30788230CF022
:1001300010E0112329F081E090E09A87898746C07A
:1001400011E06D817E818F81988520E03FEF4FE740
:1001500057E40E94830718160CF010E0112361F198
:1001600069817A818B819C8120E030E040E251E41A
:100170000E94DB05DC01CB01BC01CD010E9407041C
:10018000DC01CB019A87898712C080E991E09C87C6
:100190008B878B859C858C01C8010197F1F78C01B9
:1001A0001C870B8789859A8501979A878987898516
:1001B0009A85009751F717C06D817E818F81988550
:1001C0000E940704DC01CB019A87898789859A857B
:1001D0009E878D878D859E858C01F8013197F1F77B
:1001E0008F011E870D8784E09FEF20E3FC012083B1
:1001F00080E090E0A0E2B1E48F87988BA98BBA8B66
:100200006F85788989899A8920E030E04AE755E44A
:100210000E94DB05DC01CB018B8B9C8BAD8BBE8BF5
:1002200011E06B897C898D899E8920E030E040E86F
:100230005FE30E94E30788230CF010E0112329F00C
:1002400081E090E0988F8F8B46C011E06B897C89AC
:100250008D899E8920E03FEF4FE757E40E94830796
:1002600018160CF010E0112361F16F8578898989E7
:100270009A8920E030E040E251E40E94DB05DC0195
:10028000CB01BC01CD010E940704DC01CB01988F9A
:100290008F8B12C080E991E09A8F898F898D9A8D1A
:1002A0008C01C8010197F1F78C011A8F098F8F8992
:1002B000988D0197988F8F8B8F89988D009751F724
:1002C00017C06B897C898D899E890E940704DC0197
:1002D000CB01988F8F8B8F89988D9C8F8B8F8B8D77
:1002E0009C8D8C01F8013197F1F78F011C8F0B8FDA
:1002F00084E09FEF20E3FC01208380E090E0A0E217
:10030000B1E48D8F9E8FAF8FB8A36D8D7E8D8F8D55
:1003100098A120E030E04AE755E40E94DB05DC01CB
:10032000CB0189A39AA3ABA3BCA311E069A17AA1D5
:100330008BA19CA120E030E040E85FE30E94E3074E
:1003400088230CF010E0112329F081E090E09EA3B7
:100350008DA346C011E069A17AA18BA19CA120E0E8
:100360003FEF4FE757E40E94830718160CF010E0A8
:10037000112361F16D8D7E8D8F8D98A120E030E08D
:1003800040E251E40E94DB05DC01CB01BC01CD0160
:100390000E940704DC01CB019EA38DA312C080E95B
:1003A00091E098A78FA38FA198A58C01C801019710
:1003B000F1F78C0118A70FA38DA19EA101979EA311
:1003C0008DA38DA19EA1009751F717C069A17AA1B5
:1003D0008BA19CA10E940704DC01CB019EA38DA3ED
:1003E0008DA19EA19AA789A789A59AA58C01F8013C
:1003F0003197F1F78F011AA709A784E09FEF20E357
:10040000FC0120830E94F60384E09FEF28E3FC01B7
:1004100020830E94F6038CE00E94FD0381E00E948D
:10042000FD0386E00E94FD03AA960FB6F894DEBF96
:100430000FBECDBFCF91DF911F910F910895DF9334
:10044000CF93CDB7DEB787E290E021E4FC012083B3
:1004500086E290E02FEEFC012083CF91DF9108959A
:10046000EF92FF920F931F93DF93CF93CDB7DEB739
:1004700066970FB6F894DEBF0FBECDBF85E590E05E
:1004800020ECFC0120838DE690E02EE0FC0120832F
:1004900081E09FEF23E1FC0120830E9467000E941E
:1004A0001F0281E390E0FC01108282E390E02FEFD5
:1004B000FC0120831A8219820CC089819A818C5E8A
:1004C0009D4F20E2FC01208389819A8101969A83C5
:1004D000898389819A81883091057CF386E58093B0
:1004E000140289E6809315028EE6809316028DE34E
:1004F000809317028EE28093190286E580931B0297
:1005000080E090E0AAE7B4E489879A87AB87BC874C
:1005100069857A858B859C8520E030E04AE755E443
:100520000E94DB05DC01CB018D879E87AF87B88BEE
:1005300011E06D857E858F85988920E030E040E868
:100540005FE30E94E30788230CF010E0112329F0F9
:1005500081E090E09A8B898B46C011E06D857E85A5
:100560008F85988920E03FEF4FE757E40E9483078B
:1005700018160CF010E0112361F169857A858B85DE
:100580009C8520E030E040E251E40E94DB05DC0184
:10059000CB01BC01CD010E940704DC01CB019A8B89
:1005A000898B12C080E991E09C8B8B8B8B899C8915
:1005B0008C01C8010197F1F78C011C8B0B8B898989
:1005C0009A8901979A8B898B89899A89009751F723
:1005D00017C06D857E858F8598890E940704DC0190
:1005E000CB019A8B898B89899A899E8B8D8B8D897A
:1005F0009E898C01F8013197F1F78F011E8B0D8BCD
:1006000084E290E0FC0180819181CC01A0E0B0E027
:10061000BC01CD010E94C508DC01CB01BC01CD01AC
:100620002DEC3CEC4CE453E40E94D506DC01CB01FC
:1006300080930A0290930B02A0930C02B0930D02D8
:1006400080910A0290910B02A0910C02B0910D02D0
:10065000BC01CD0120E030E040E251E40E94DB0526
:10066000DC01CB0180931C0290931D02A0931E021B
:10067000B0931F0280910A0290910B02A0910C028C
:10068000B0910D02BC01CD010E947308DC01CB01C9
:100690009093310280933002E0901C02F0901D0292
:1006A00000911E0210911F02809130029091310240
:1006B000880F991F9C01220F331F220F331F820FB7
:1006C000931FAA2797FDA095BA2FBC01CD010E94C8
:1006D00013089B01AC01C801B7010E94AA05DC0107
:1006E000CB01BC01CD010E947308DC01CB019093CA
:1006F0000902809308028091300290913102C096E5
:100700009093310280933002809108029091090207
:10071000C0969093090280930802809130029091D4
:10072000310280931802809108029091090280930F
:100730001A0281E00E94FD031C821B820DC08B8186
:100740009C818C5E9D4FFC0180810E9402048B8104
:100750009C8101969C838B838B819C818830910541
:1007600074F380EC0E94FD0380E090E0DC018D8357
:100770009E83AF83B88729C020910A0230910B0273
:1007800040910C0250910D0211E06D817E818F81AC
:1007900098850E94830718160CF010E0112311F0C1
:1007A0000000AECE8BE20E9402046D817E818F81BB
:1007B00098852AE939E949E95EE30E947D05DC0173
:1007C000CB018D839E83AF83B88711E06D817E81DD
:1007D0008F81988520E030E040EA50E40E94E307F2
:1007E00088230CF010E0112339F68ACE8FE39FE1C5
:1007F0000197F1F700C000000895809304FF0E9464
:10080000F6030895809305FF0E94F6030895EF9282
:10081000FF920F931F937B018C0120E030E040E0BA
:100820005FE40E94B30787FD11C0C801B70120E053
:1008300030E040E05FE40E94AA050E9473089B013B
:10084000AC01205030404040504806C0C801B701BC
:100850000E9473089B01AC01B901CA011F910F915D
:10086000FF90EF900895A0E0B0E0E9E3F4E00C948D
:100870002B0BFC01EA018081823008F438C1DB01D6
:100880009C91923008F430C1843059F4943009F0CE
:100890002EC1918111968C911197981709F021C161
:1008A00026C1943009F420C19230B1F4823009F0AD
:1008B0001EC1CA01AF0128E0DA010D90AD01DC01D3
:1008C0000D92CD012150C1F7DB0111968C9111974A
:1008D0009181892389830AC1823009F405C1C280CC
:1008E000D380DB0112966D907C9013972481358123
:1008F000468157811496ED90FD900D911C911797AC
:10090000C601861997095C0197FF04C0AA24BB247D
:10091000A81AB90AB0E2AB16B1040CF061C01816FF
:1009200019066CF5370148010A2C04C09694879487
:10093000779467940A94D2F781E090E0A0E0B0E069
:100940000A2C04C0880F991FAA1FBB1F0A94D2F754
:100950000197A109B1098E219F21A023B123EE2483
:10096000FF248701E3940097A105B10519F4EE2453
:10097000FF248701E628F728082919293CC0009799
:10098000D1F1CA0CDB1C39014A010A2C04C096942F
:100990008794779467940A94D2F781E090E0A0E07E
:1009A000B0E00A2C04C0880F991FAA1FBB1F0A942D
:1009B000D2F70197A109B10982239323A423B52378
:1009C00021E030E040E050E00097A105B10519F4C6
:1009D00020E030E0A90126293729482959290BC0F0
:1009E0006C147D0424F4EE24FF24870104C0630109
:1009F00020E030E0A9018181FB019181891709F490
:100A000045C0882349F0D801C701821B930BA40B72
:100A1000B50B9C01AD0104C02E193F09400B510BD1
:100A200057FD04C01982DB82CA820BC081E0898332
:100A3000DB82CA8250954095309521953F4F4F4FAC
:100A40005F4F2C833D834E835F830DC0880F991FBA
:100A5000AA1FBB1F8C839D83AE83BF838A819B812A
:100A600001979B838A838C819D81AE81BF819C018C
:100A7000AD0121503040404050402F3FEFEF3E0746
:100A8000EFEF4E07EFE35E0708F30BC08983DB82CD
:100A9000CA822E0D3F1D401F511F2C833D834E8364
:100AA0005F8383E088832C813D814E815F8157FF86
:100AB0001DC0DA01C90181709070A070B0705695A8
:100AC000479537952795822B932BA42BB52B8C8399
:100AD0009D83AE83BF838A819B8101969B838A839A
:100AE00005C0E0E0F1E003C0FB0101C0FE01CF0161
:100AF000CDB7DEB7EEE00C94470BA0E2B0E0E3E840
:100B0000F5E00C94330B69837A838B839C832D836C
:100B10003E834F83588789E0E82EF12CEC0EFD1EB2
:100B2000CE010196B7010E94650A8E010F5E1F4F2C
:100B3000CE010596B8010E94650AC701B801AE0151
:100B4000475E5F4F0E9433040E949709A096E6E03B
:100B50000C944F0BA0E2B0E0E0EBF5E00C94330B0B
:100B600069837A838B839C832D833E834F8358874D
:100B70008E01075F1F4FCE010196B8010E94650AE2
:100B800091E1E92EF12CEC0EFD1ECE010596B70188
:100B90000E94650A8A8991E089278A8BC801B7017A
:100BA000AE01475E5F4F0E9433040E949709A096F2
:100BB000E6E00C944F0BA0E2B0E0E1EEF5E00C941F
:100BC000270B69837A838B839C832D833E834F839A
:100BD0005887CE010196BE01675F7F4F0E94650A6C
:100BE000CE010596BE016F5E7F4F0E94650A998512
:100BF000923078F089898230C0F0943019F48230D4
:100C000041F4CBC0843019F4923079F4C6C09230EC
:100C100051F481E02A859A89291709F480E08A87AE
:100C2000CE010996BCC0823051F481E02A859A89B0
:100C3000291709F480E08A8BCE014196B0C06D84FB
:100C40007E848F849888ED88FE880F89188DE0E275
:100C5000F0E080E090E0DC01AA24BB24650120E004
:100C600030E0A901B3016170707061157105D1F0B8
:100C70002E0D3F1D401F511F15012601280E391E44
:100C80004A1E5B1E81E090E0A0E0B0E02E153F051B
:100C90004007510718F080E090E0DC01820D931DC1
:100CA000A41DB51DAA0CBB1CCC1CDD1C17FF09C064
:100CB00061E0262E312C412C512CA228B328C428C7
:100CC000D528319749F0EE0CFF1C001F111F969498
:100CD000879477946794C6CF6B897C89EB85FC8574
:100CE0006E0F7F1F6E5F7F4F7C8F6B8F61E0EA8599
:100CF0007A89E71709F460E06A8F6B8D7C8D10C0EC
:100D0000FC01E170F070309729F0569547953795C2
:100D100027955068B695A795979587956F5F7F4FF4
:100D2000B7FDEECF0CC0880F991FAA1FBB1F57FD40
:100D30008160220F331F441F551F61507040803067
:100D4000E0E09E07E0E0AE07E0E4BE0760F36B8FF3
:100D50007C8F6FE7E62EF12C012D112DE822F92270
:100D60000A231B2360E4E616F1040105110561F472
:100D700087FD0AC0211531054105510529F0805C28
:100D80009F4FAF4FBF4F80788D8F9E8FAF8FB8A38F
:100D900083E0898FCE01499602C080E091E00E94F5
:100DA0009709A096E2E10C94430BA8E1B0E0EBEDCB
:100DB000F6E00C942F0B69837A838B839C832D83BD
:100DC0003E834F8358878E01075F1F4FCE010196E8
:100DD000B8010E94650A81E1E82EF12CEC0EFD1E9F
:100DE000CE010596B7010E94650A9985923008F4F4
:100DF00083C08989823008F47BC02A853A892327F9
:100E00002A87943011F0923021F4981709F06CC0C1
:100E100071C0843039F41D861E861F86188A1C8690
:100E20001B866AC0823019F484E0898765C08B858F
:100E30009C852B893C89821B930B9C878B872D85F6
:100E40003E854F855889ED88FE880F89188D2E15AF
:100E50003F054007510738F4220F331F441F551F29
:100E600001979C878B876FE170E0A12CB12CC12C7E
:100E7000A0E4DA2E80E090E0DC012E153F0540076B
:100E8000510740F08A299B29AC29BD292E193F0919
:100E9000400B510BD694C794B794A794220F331FDD
:100EA000441F551F6150704041F76FE7E62EF12C4B
:100EB000012D112DE822F9220A231B2360E4E616F6
:100EC000F1040105110561F487FD0AC02115310502
:100ED0004105510529F0805C9F4FAF4FBF4F80788F
:100EE0008D879E87AF87B88B8E01075F1F4F04C029
:100EF000870102C000E011E0C8010E9497096896CE
:100F0000EAE00C944B0BA8E1B0E0E9E8F7E00C94C0
:100F1000330B69837A838B839C832D833E834F833A
:100F200058878E01075F1F4FCE010196B8010E94BE
:100F3000650A81E1E82EF12CEC0EFD1ECE0105962E
:100F4000B7010E94650A8985823040F08989823024
:100F500028F0C801B7010E94CE0A01C08FEF689641
:100F6000E6E00C944F0BA8E1B0E0E9EBF7E00C945D
:100F7000330B69837A838B839C832D833E834F83DA
:100F800058878E01075F1F4FCE010196B8010E945E
:100F9000650A81E1E82EF12CEC0EFD1ECE010596CE
:100FA000B7010E94650A8985823040F089898230C4
:100FB00028F0C801B7010E94CE0A01C08FEF6896E1
:100FC000E6E00C944F0BA8E1B0E0E9EEF7E00C94FA
:100FD000330B69837A838B839C832D833E834F837A
:100FE00058878E01075F1F4FCE010196B8010E94FE
:100FF000650A81E1E82EF12CEC0EFD1ECE0105966E
:10100000B7010E94650A8985823040F08989823063
:1010100028F0C801B7010E94CE0A01C081E068969D
:10102000E6E00C944F0BA8E0B0E0E9E1F8E00C94A6
:10103000330B7B018C0183E08983D801C7018827AA
:10104000B7FD83959927AA27BB27282F8A83E11408
:10105000F1040105110519F482E0898337C08EE19E
:1010600090E09C838B83222389F080E0E81680E067
:10107000F80680E0080780E8180769F110950095E8
:10108000F094E094E11CF11C011D111DED82FE8223
:101090000F831887C801B7010E943D099C012150A8
:1010A00030401216130694F4022E04C0EE0CFF1CFE
:1010B000001F111F0A94D2F7ED82FE820F8318875A
:1010C0008EE190E0821B930B9C838B83CE01019673
:1010D0000E94970904C060E070E080E09FEC2896D1
:1010E000E6E00C944F0BACE0B0E0E9E7F8E00C94DC
:1010F000370B69837A838B839C83CE010196BE0173
:101100006B5F7F4F0E94650A8D81823081F1823052
:1011100070F1843021F48E81882369F10AC02F8117
:10112000388537FD24C06E812F3131053CF06623B0
:1011300011F120E030E040E050E821C08EE190E085
:10114000821B930B29853A854B855C8504C0569597
:101150004795379527958A95D2F7662381F0509564
:101160004095309521953F4F4F4F5F4F08C020E08D
:1011700030E0A90104C02FEF3FEF4FEF5FE7B90167
:10118000CA012C96E2E00C94530BA8E0B0E0EBEC23
:10119000F8E00C94310B7B018C011A82611571050A
:1011A0008105910519F482E089835FC083E089831A
:1011B0008EE1C82ED12CDC82CB82ED82FE820F83A1
:1011C0001887C801B7010E943D09FC013197F7FF5C
:1011D0003AC0AA27BB27AE1BBF0B21E030E040E09E
:1011E00050E00A2E04C0220F331F441F551F0A94DB
:1011F000D2F721503040404050402E213F21402323
:10120000512361E070E080E090E021153105410557
:10121000510519F460E070E0CB0104C01695079504
:10122000F794E794AA95D2F7E62AF72A082B192B08
:10123000ED82FE820F8318878EE190E08E1B9F0B5C
:101240009C838B8312C0309781F00E2E04C0EE0C6D
:10125000FF1C001F111F0A94D2F7ED82FE820F833C
:101260001887CE1ADF0ADC82CB82CE0101960E945B
:1012700097092896E8E00C944D0BAF92BF92CF925D
:10128000DF92EF92FF920F931F937B018C0180E01E
:10129000E81680E0F80681E0080780E0180758F4B7
:1012A000EFEFEE16F1040105110509F090F480E06E
:1012B00090E0DC0117C0F0E0EF16F0E0FF06F0E090
:1012C0000F07F1E01F0750F480E190E0A0E0B0E0EC
:1012D00009C088E090E0A0E0B0E004C088E190E0C0
:1012E000A0E0B0E020E230E040E050E0281B390B05
:1012F0004A0B5B0B5701680104C0D694C794B7949E
:10130000A7948A95D2F7D601C501885F9E4FFC014C
:101310008081281B310941095109C9011F910F9191
:10132000FF90EF90DF90CF90BF90AF900895EF9235
:10133000FF920F931F93CF93DF93FC01248135819C
:101340004681578161818081823020F44061EFEFD6
:10135000F0E0A3C0843009F49BC0823009F492C04D
:10136000211531054105510509F48FC00280F38133
:10137000E02D8FEFE238F8070CF05AC0C2E8DFEF3B
:10138000CE1BDF0BCA31D1056CF579018A010C2E19
:1013900004C016950795F794E7940A94D2F781E074
:1013A00090E0A0E0B0E00C2E04C0880F991FAA1FA7
:1013B000BB1F0A94D2F70197A109B1098223932395
:1013C000A423B52321E030E040E050E00097A105E0
:1013D000B10519F420E030E0A9012E293F29402B66
:1013E000512B03C020E030E0A901DA01C9018F7759
:1013F0009070A070B07080349105A105B10539F4EA
:1014000027FF09C0205C3F4F4F4F5F4F04C0215C56
:101410003F4F4F4F5F4FE1E0F0E0203080E0380772
:1014200080E0480780E4580728F5E0E0F0E022C0BB
:10143000E038F1056CF5E158FF4FDA01C9018F770B
:101440009070A070B07080349105A105B10539F499
:1014500027FF09C0205C3F4F4F4F5F4F04C0215C06
:101460003F4F4F4F5F4F57FF05C0569547953795F4
:101470002795319687E056954795379527958A9514
:10148000D1F70BC0E0E0F0E005C0E0E0F0E005C01F
:10149000EFEFF0E020E030E0A9018E2F879588275C
:1014A0008795942F9F77679566276795E695E22E37
:1014B000A92FA82BFE2FF62B622F732F8A2F9F2F79
:1014C000CDB7DEB7E6E00C944F0BDC01FB012C91AD
:1014D00011963C91119712968C911297482F4F7745
:1014E00050E0982F991F9927991F13966C91139785
:1014F000862F880F892B90E0661F6627661F618301
:10150000009739F5211531054105510511F482E0A7
:1015100029C082E89FEF9383828367E0220F331F05
:10152000441F551F6A95D1F783E0808309C0220FBD
:10153000331F441F551F82819381019793838283B8
:10154000203080E0380780E0480780E4580778F3CF
:1015500020C08F3F910579F42115310541055105D2
:1015600019F484E08083089544FF03C081E0808300
:1015700010C010820EC08F5790409383828383E007
:10158000808387E0220F331F441F551F8A95D1F7B0
:10159000506424833583468357830895FC01DB011F
:1015A0009081923008F449C08C91823008F445C093
:1015B000943051F461818430B1F511962C911197DA
:1015C00030E0261B310941C0843021F0923041F4D3
:1015D0008230B1F111968C9111978823A1F12DC021
:1015E0006181823001F111968C9111976817D9F4BD
:1015F0002281338112968D919C91139782179307C4
:1016000094F028173907BCF0248135814681578131
:1016100014968D919D910D90BC91A02D82179307EA
:10162000A407B50718F4662341F00DC02817390741
:101630004A075B0728F4662331F021E030E005C05B
:1016400020E030E002C02FEF3FEFC90108952F9254
:101650003F924F925F926F927F928F929F92AF9242
:10166000BF92CF92DF92EF92FF920F931F93CF938F
:10167000DF93CDB7DEB7CA1BDB0B0FB6F894DEBF26
:101680000FBECDBF09942A88398848885F846E844C
:101690007D848C849B84AA84B984C884DF80EE8096
:1016A000FD800C811B81AA81B981CE0FD11D0FB69F
:1016B000F894DEBF0FBECDBFED010895F894FFCFC3
:1016C0000000000000000000000102020303030309
:1016D00004040404040404040505050505050505C2
:1016E00005050505050505050606060606060606A2
:1016F000060606060606060606060606060606068A
:101700000606060606060606070707070707070771
:101710000707070707070707070707070707070759
:101720000707070707070707070707070707070749
:101730000707070707070707070707070707070739
:101740000707070707070707080808080808080821
:101750000808080808080808080808080808080809
:1017600008080808080808080808080808080808F9
:1017700008080808080808080808080808080808E9
:1017800008080808080808080808080808080808D9
:1017900008080808080808080808080808080808C9
:1017A00008080808080808080808080808080808B9
:1017B00008080808080808080808080808080808A9
:0817C0000808080808080808E1
:00000001FF
